:020000040000FA
:10000000600400206D020000710200007302000015
:100010007502000077020000790200000000000075
:100020000000000000000000000000007B02000053
:100030007D020000000000007F020000810200003D
:10004000830200008302000083020000830200009C
:10005000830200008302000083020000830200008C
:10006000830200008302000083020000830200007C
:10007000830200008302000083020000830200006C
:10008000830200008302000083020000830200005C
:10009000830200008302000083020000830200004C
:1000A000830200008302000083020000830200003C
:1000B000830200008302000083020000830200002C
:1000C000830200008302000083020000830200001C
:1000D000830200008302000083020000830200000C
:1000E00083020000830200008302000083020000FC
:1000F00083020000830200008302000083020000EC
:1001000083020000830200008302000083020000DB
:1001100083020000830200008302000083020000CB
:1001200083020000830200008302000083020000BB
:1001300083020000830200008302000083020000AB
:1001400000000000000000000000000000000000AF
:10015000830200008302000083020000830200008B
:10016000000000000000000000000000000000008F
:10017000000000000000000000000000000000007F
:10018000000000000000000000000000000000006F
:10019000000000000000000000000000000000005F
:1001A000000000000000000000000000000000004F
:1001B000830200008302000083020000830200002B
:1001C000830200008302000083020000830200001B
:1001D000830200008302000083020000830200000B
:1001E00083020000830200008302000083020000FB
:1001F00083020000830200008302000083020000EB
:10020000830200008302000083020000000000005F
:1002100083020000830200008302000083020000CA
:1002200083020000830200008302000083020000BA
:1002300083020000830200008302000083020000AA
:10024000830200008302000083020000830200009A
:10025000830200008302000083020000830200008A
:1002600083020000830200008302000000F00AB84D
:10027000FEE7FEE7FEE7FEE7FEE7FEE7FEE7FEE756
:10028000FEE7FEE700F002F800F02CF80AA090E884
:10029000000C82448344AAF10107DA4501D100F041
:1002A00021F8AFF2090EBAE80F0013F0010F18BFE2
:1002B000FB1A43F001031847AC040000BC04000023
:1002C0000023002400250026103A28BF78C1FBD85F
:1002D000520728BF30C148BF0B6070471FB51FBD14
:1002E00010B510BD00F029F81146FFF7F7FF00F038
:1002F00037F900F047F803B4FFF7F2FF03BC00F052
:100300004FF8000072B6704762B67047EFF3108086
:1003100072B6704780F31088704730BF704702484C
:100320000249014A024B704760000020600400202F
:1003300060000020704770477047754600F02CF849
:10034000AE4605006946534620F00700854618B0C2
:1003500020B5FFF7E4FFBDE820404FF000064FF066
:1003600000074FF000084FF0000B21F00701AC46EA
:10037000ACE8C009ACE8C009ACE8C009ACE8C00909
:100380008D46704710B50446AFF300802046BDE8A7
:100390001040FFF7B0BF0000004870470000002089
:1003A00001491820ABBEFEE726000200704700009E
:1003B0001848006840F002001749C1F8080100BF62
:1003C0001448006800F002000228F9D113480068C0
:1003D00020F03F0011490860081D006800F07F40D0
:1003E000091D08600E48006840F03F000C49086095
:1003F0000B482030006820F03F0009492031086098
:1004000006480C38006840F03F0004490C39086089
:100410007047000008E10F4000E00F402855004001
:10042000005400401C48006840F010001B49C1F80F
:10043000080100BF1848006800F010001028F9D12A
:100440001748006820F0070015490860081D00687B
:100450006FF30B00091D08601248006820F00700C8
:10046000104908600F482030006820F007000D494F
:10047000203108600A480C38006840F0070008493D
:100480000C39086006481438006840F00700044939
:10049000143908607047000008E10F4000E00F4089
:1004A00028450240004402401948006840F02000FE
:1004B0001849C1F8080100BF1548006800F0200085
:1004C0002028F9D11448006820F00A001249086079
:1004D000081D00684FF2F00188430F49091D0860AC
:1004E0000E48006840F00A000C4908600B482030B4
:1004F000006820F00A0009492031086006480C38DD
:10050000006840F00A0004490C3908607047000098
:1005100008E10F4000E00F4028550240005402401F
:1005200000204FF0E0210861034848610020886105
:100530000520086170470000FF083D0000210CE025
:1005400000224FF0E0239A6100BF4FF0E0221269D1
:1005500002F48032002AF8D0491C8142F0D370475F
:10056000FFF726FFFFF75EFFFFF79EFFFFF7D8FFBD
:10057000002428E004EB440000EBC400124901EB26
:10058000800040681149086004EB440000EBC4009F
:100590000D4901EB800080680D49886204EB44013D
:1005A00001EBC401084A12F82100FFF7C7FF094810
:1005B000C56904EB440000EBC400034901EB800073
:1005C0000C3050F82540D5E7D8050000FC5000401D
:1005D00000500240004002400800000021000000DE
:1005E0000200000000000000010000000100000007
:1005F00001000000000000000100000001000000F8
:1006000001000000040000002200000002000000C1
:1006100004000000040000000200000004000000CC
:1006200002000000040000000200000002000000C0
:10063000080000000C0000000200000002000000A2
:10064000030000000200000003000000030000009F
:10065000030000000300000003000000040000008D
:100660001400000002000000000000000400000070
:100670000400000004000000000000000000000072
:10068000000000000400000008000000240000003A
:100690000800000004000000040000000500000045
:1006A0000500000005000000050000000500000036
:1006B000050000000100000024000000020000000E
:1006C0000600000006000000060000000600000012
:1006D0000600000006000000060000000600000002
:1006E00001000000240000000000000007000000DE
:1006F00007000000070000000700000007000000DE
:1007000007000000070000000700000001000000D3
:1007100024000000020000000800000008000000A3
:1007200008000000080000000800000008000000A9
:100730000800000008000000010000002400000084
:1007400000000000000000000200000002000000A5
:100750000200000000000000000000000200000095
:10076000000000007407000000000020600400008A
:04077000C0020000C3
:040000050000026D88
:00000001FF
