:020000040000FA
:10000000700400206D020000710200007302000005
:100010007502000077020000790200000000000075
:100020000000000000000000000000007B02000053
:100030007D020000000000007F020000AD0600000D
:10004000830200008302000083020000830200009C
:100050004D040000830200008302000083020000C0
:10006000830200008302000083020000830200007C
:10007000830200008302000083020000830200006C
:10008000830200008302000083020000830200005C
:10009000830200008302000083020000830200004C
:1000A000830200008302000083020000830200003C
:1000B0008302000083020000AD0400008302000000
:1000C000830200008302000083020000830200001C
:1000D000830200008302000083020000830200000C
:1000E00083020000830200008302000083020000FC
:1000F00083020000830200008302000083020000EC
:1001000083020000830200008302000083020000DB
:1001100083020000830200008302000083020000CB
:1001200083020000830200008302000083020000BB
:1001300083020000830200008302000083020000AB
:1001400000000000000000000000000000000000AF
:10015000830200008302000083020000830200008B
:10016000000000000000000000000000000000008F
:10017000000000000000000000000000000000007F
:10018000000000000000000000000000000000006F
:10019000000000000000000000000000000000005F
:1001A000000000000000000000000000000000004F
:1001B000830200008302000083020000830200002B
:1001C000830200008302000083020000830200001B
:1001D000830200008302000083020000830200000B
:1001E00083020000830200008302000083020000FB
:1001F00083020000830200008302000083020000EB
:10020000830200008302000083020000000000005F
:1002100083020000830200008302000083020000CA
:1002200083020000830200008302000083020000BA
:1002300083020000830200008302000083020000AA
:10024000830200008302000083020000830200009A
:10025000830200008302000083020000830200008A
:1002600083020000830200008302000000F00AB84D
:10027000FEE7FEE7FEE7FEE7FEE7FEE7FEE7FEE756
:10028000FEE7FEE700F002F800F03AF80AA090E876
:10029000000C82448344AAF10107DA4501D100F041
:1002A0002FF8AFF2090EBAE80F0013F0010F18BFD4
:1002B000FB1A43F001031847F80500001806000078
:1002C000103A24BF78C878C1FAD8520724BF30C882
:1002D00030C144BF04680C60704700000023002454
:1002E00000250026103A28BF78C1FBD8520728BF46
:1002F00030C148BF0B6070471FB51FBD10B510BDA2
:1003000000F029F81146FFF7F7FF00F01FFA00F0A0
:1003100047F803B4FFF7F2FF03BC00F04FF800000A
:1003200072B6704762B67047EFF3108072B67047CE
:1003300080F31088704730BF704702480249014A75
:10034000024B7047700000207004002070000020F5
:10035000704770477047754600F02CF8AE460500B0
:100360006946534620F00700854618B020B5FFF7D0
:10037000E4FFBDE820404FF000064FF000074FF0CB
:1003800000084FF0000B21F00701AC46ACE8C009B3
:10039000ACE8C009ACE8C009ACE8C0098D467047BC
:1003A00010B50446AFF300802046BDE81040FFF7CB
:1003B000B0BF0000004870470C0000200149182021
:1003C000ABBEFEE726000200704700001B48006835
:1003D00040F002001A49C1F8080100BF1748006840
:1003E00000F002000228F9D11648006820F0FF0052
:1003F00014490860081D00680020091D08601248A3
:10040000006840F0FF00104908600F482030006885
:1004100020F0FF000C49203108600A480C380068C1
:1004200040F0FF0007490C3908600648183800689A
:1004300040F0FF00034918390860704708E10F4099
:1004400000E00F402855004000540040124800686A
:1004500040F00100104908600020104908604FF08A
:10046000E02108610D48006800EB40000C4901EBF9
:10047000C00040680B49086000204FF0E02188610F
:10048000072008610548006800EB4000044951F866
:1004900030000549086070471C44024004000020F9
:1004A000A8070000FC53004008000020084800682E
:1004B00040F0110006490860064840680549096C8B
:1004C00000EBD10103208843034908607047000016
:1004D0001C540240005002400000002030480068D8
:1004E00040F010002F49C1F8080100BF2C480068F7
:1004F00000F010001028F9D12B48006820F001000E
:1005000029490860081D006820F00F00091D0860D7
:100510002648006820F00100244908602348203064
:10052000006820F001002149203108601E480C3885
:10053000006840F001001C490C3908601B48001D90
:10054000006840F001001949091D0860081D006895
:1005500020F00100091D0860081D006840F001003E
:10056000091D0860012011491C3108600F48103036
:10057000006840F001000D49103108600C48006827
:1005800020F0E00040F020000949086009480068B8
:1005900040F010004FF0E021C1F80001704700006A
:1005A00008E10F4000E00F402845024000440240AF
:1005B00004E400E000E100E03548006840F020007D
:1005C0003449C1F8080100BF3148006800F020003C
:1005D0002028F9D1304831490860081D006840F0F2
:1005E0000100091D0860081D006820F01100091DA8
:1005F0000860081D006820F00F10091D08602848D9
:10060000006820F011002649086025482030006865
:1006100020F011002249203108602048001F0068A6
:1006200040F011001D49091F08601C48103800687F
:1006300040F011001949103908601948001D006880
:1006400020F011001649091D0860081D006840F0DF
:100650001100091D0860112011491C310860104863
:100660001030006840F011000D49103108600D484D
:10067000006820F4600040F480000A4908600A48DD
:10068000006840F080404FF0E021C1F80001704761
:1006900008E10F4000E00F404B434F4C2055024013
:1006A000005402401CE400E000E100E0154800684E
:1006B000022805D11348006840001249086020E074
:1006C0001148006800EB4000104901EBC000083001
:1006D0000F49096850F821000B4908600846006876
:1006E00000EB4000094901EBC0004068094908607F
:1006F0000548006800EB4000044951F8300001490A
:10070000086070470800002004000020A8070000CF
:1007100000000020FC53004000204FF0E021086161
:1007200008484861002088610748006820F0604060
:1007300040F0C0400449086007204FF0E021086104
:1007400070470000FF117A0020ED00E0FFF7E8FDA0
:10075000FFF732FFFFF7C2FEFFF7DEFFFFF736FEBF
:10076000FFF7E0FD00200C4908600846006800EB38
:1007700040000A4901EBC00040680949086006488A
:10078000006800EB4000054951F830000549086059
:1007900001E0FFF7D0FDFCE704000020A8070000FF
:1007A000FC5300400800002002000000FF00000091
:1007B0000100000001000000010000000100000035
:1007C0000100000000000000010000000100000026
:1007D000010000000200000001000000880000008D
:1007E00007000000050000000600000003000000F4
:1007F00001000000440000000700000005000000A8
:1008000006000000040000000100000022000000BB
:100810000A000000080000000900000004000000B9
:1008200002000000100000000100000001000000B4
:1008300001000000010000000200000001000000B3
:1008400001000000010000000100000001000000A4
:100850000200000011000000010000000100000083
:100860000100000001000000020000002000000064
:100870000100000001000000010000000100000074
:100880000200000002000000010000000100000062
:100890000100000001000000020000002200000032
:1008A0000100000001000000010000000100000044
:1008B000D0080000000000200C000000C002000072
:1008C000DC0800000C00002064040000DC020000D2
:0C08D0000000000000000000000000001C
:040000050000026D88
:00000001FF
